{
  "_format": "hh-sol-artifact-1",
  "contractName": "UserDataStorage",
  "sourceName": "contracts/off-Ramp.sol",
  "abi": [
    {
      "inputs": [],
      "stateMutability": "nonpayable",
      "type": "constructor"
    },
    {
      "anonymous": false,
      "inputs": [
        {
          "indexed": false,
          "internalType": "uint8",
          "name": "version",
          "type": "uint8"
        }
      ],
      "name": "Initialized",
      "type": "event"
    },
    {
      "anonymous": false,
      "inputs": [
        {
          "indexed": true,
          "internalType": "string",
          "name": "userId",
          "type": "string"
        },
        {
          "indexed": false,
          "internalType": "address",
          "name": "walletAddress",
          "type": "address"
        },
        {
          "indexed": false,
          "internalType": "uint256",
          "name": "withdrawalAmount",
          "type": "uint256"
        },
        {
          "indexed": false,
          "internalType": "enum UserDataStorage.Status",
          "name": "status",
          "type": "uint8"
        },
        {
          "indexed": false,
          "internalType": "string",
          "name": "onMetaTransactionID",
          "type": "string"
        },
        {
          "indexed": false,
          "internalType": "uint256",
          "name": "allTimeStamps",
          "type": "uint256"
        }
      ],
      "name": "OrderReceivedCreated",
      "type": "event"
    },
    {
      "anonymous": false,
      "inputs": [
        {
          "indexed": true,
          "internalType": "address",
          "name": "previousOwner",
          "type": "address"
        },
        {
          "indexed": true,
          "internalType": "address",
          "name": "newOwner",
          "type": "address"
        }
      ],
      "name": "OwnershipTransferred",
      "type": "event"
    },
    {
      "anonymous": false,
      "inputs": [
        {
          "indexed": true,
          "internalType": "string",
          "name": "userId",
          "type": "string"
        },
        {
          "indexed": false,
          "internalType": "address",
          "name": "walletAddress",
          "type": "address"
        },
        {
          "indexed": false,
          "internalType": "uint256",
          "name": "withdrawalAmount",
          "type": "uint256"
        },
        {
          "indexed": false,
          "internalType": "enum UserDataStorage.Status",
          "name": "status",
          "type": "uint8"
        },
        {
          "indexed": false,
          "internalType": "string",
          "name": "onMetaTransactionID",
          "type": "string"
        },
        {
          "indexed": false,
          "internalType": "uint256",
          "name": "allTimeStamps",
          "type": "uint256"
        }
      ],
      "name": "PendingWithdrawalCreated",
      "type": "event"
    },
    {
      "anonymous": false,
      "inputs": [
        {
          "indexed": true,
          "internalType": "string",
          "name": "userId",
          "type": "string"
        },
        {
          "indexed": false,
          "internalType": "address",
          "name": "walletAddress",
          "type": "address"
        },
        {
          "indexed": false,
          "internalType": "string",
          "name": "paymentMode",
          "type": "string"
        },
        {
          "indexed": false,
          "internalType": "uint256",
          "name": "allTimeStamps",
          "type": "uint256"
        },
        {
          "indexed": false,
          "internalType": "uint256",
          "name": "totalWithdrawalBalance",
          "type": "uint256"
        }
      ],
      "name": "Withdrawal",
      "type": "event"
    },
    {
      "anonymous": false,
      "inputs": [
        {
          "indexed": true,
          "internalType": "string",
          "name": "userId",
          "type": "string"
        },
        {
          "indexed": false,
          "internalType": "address",
          "name": "walletAddress",
          "type": "address"
        },
        {
          "indexed": false,
          "internalType": "uint256",
          "name": "withdrawalAmount",
          "type": "uint256"
        },
        {
          "indexed": false,
          "internalType": "enum UserDataStorage.Status",
          "name": "status",
          "type": "uint8"
        },
        {
          "indexed": false,
          "internalType": "string",
          "name": "onMetaTransactionID",
          "type": "string"
        },
        {
          "indexed": false,
          "internalType": "uint256",
          "name": "allTimeStamps",
          "type": "uint256"
        }
      ],
      "name": "adminApproveTransaction",
      "type": "event"
    },
    {
      "anonymous": false,
      "inputs": [
        {
          "indexed": true,
          "internalType": "string",
          "name": "userId",
          "type": "string"
        },
        {
          "indexed": false,
          "internalType": "address",
          "name": "walletAddress",
          "type": "address"
        },
        {
          "indexed": false,
          "internalType": "uint256",
          "name": "withdrawalAmount",
          "type": "uint256"
        },
        {
          "indexed": false,
          "internalType": "enum UserDataStorage.Status",
          "name": "status",
          "type": "uint8"
        },
        {
          "indexed": false,
          "internalType": "string",
          "name": "onMetaTransactionID",
          "type": "string"
        },
        {
          "indexed": false,
          "internalType": "uint256",
          "name": "allTimeStamps",
          "type": "uint256"
        }
      ],
      "name": "adminRejectTransaction",
      "type": "event"
    },
    {
      "anonymous": false,
      "inputs": [
        {
          "indexed": true,
          "internalType": "string",
          "name": "userId",
          "type": "string"
        },
        {
          "indexed": false,
          "internalType": "address",
          "name": "walletAddress",
          "type": "address"
        },
        {
          "indexed": false,
          "internalType": "uint256",
          "name": "withdrawalAmount",
          "type": "uint256"
        },
        {
          "indexed": false,
          "internalType": "enum UserDataStorage.Status",
          "name": "status",
          "type": "uint8"
        },
        {
          "indexed": false,
          "internalType": "string",
          "name": "onMetaTransactionID",
          "type": "string"
        },
        {
          "indexed": false,
          "internalType": "uint256",
          "name": "allTimeStamps",
          "type": "uint256"
        }
      ],
      "name": "adminRetryTransaction",
      "type": "event"
    },
    {
      "anonymous": false,
      "inputs": [
        {
          "indexed": true,
          "internalType": "string",
          "name": "userId",
          "type": "string"
        },
        {
          "indexed": false,
          "internalType": "address",
          "name": "walletAddress",
          "type": "address"
        },
        {
          "indexed": false,
          "internalType": "uint256",
          "name": "withdrawalAmount",
          "type": "uint256"
        },
        {
          "indexed": false,
          "internalType": "enum UserDataStorage.Status",
          "name": "status",
          "type": "uint8"
        },
        {
          "indexed": false,
          "internalType": "string",
          "name": "onMetaTransactionID",
          "type": "string"
        },
        {
          "indexed": false,
          "internalType": "uint256",
          "name": "allTimeStamps",
          "type": "uint256"
        }
      ],
      "name": "cryptoReceivedCreated",
      "type": "event"
    },
    {
      "anonymous": false,
      "inputs": [
        {
          "indexed": true,
          "internalType": "string",
          "name": "userId",
          "type": "string"
        },
        {
          "indexed": false,
          "internalType": "address",
          "name": "walletAddress",
          "type": "address"
        },
        {
          "indexed": false,
          "internalType": "string",
          "name": "paymentMode",
          "type": "string"
        },
        {
          "indexed": false,
          "internalType": "uint256",
          "name": "RemainingWithdrawalBalance",
          "type": "uint256"
        },
        {
          "indexed": false,
          "internalType": "uint256",
          "name": "withdrawalAmount",
          "type": "uint256"
        },
        {
          "indexed": false,
          "internalType": "uint256",
          "name": "allTimeStamps",
          "type": "uint256"
        },
        {
          "indexed": false,
          "internalType": "uint256",
          "name": "totalWithdrawalBalance",
          "type": "uint256"
        }
      ],
      "name": "cryptoTransaction",
      "type": "event"
    },
    {
      "anonymous": false,
      "inputs": [
        {
          "indexed": true,
          "internalType": "string",
          "name": "userId",
          "type": "string"
        },
        {
          "indexed": false,
          "internalType": "address",
          "name": "walletAddress",
          "type": "address"
        },
        {
          "indexed": false,
          "internalType": "string",
          "name": "paymentMode",
          "type": "string"
        },
        {
          "indexed": false,
          "internalType": "uint256",
          "name": "RemainingWithdrawalBalance",
          "type": "uint256"
        },
        {
          "indexed": false,
          "internalType": "uint256",
          "name": "withdrawalAmount",
          "type": "uint256"
        },
        {
          "indexed": false,
          "internalType": "uint256",
          "name": "fiatTimeStamp",
          "type": "uint256"
        },
        {
          "indexed": false,
          "internalType": "uint256",
          "name": "totalWithdrawalBalance",
          "type": "uint256"
        }
      ],
      "name": "fiatTransaction",
      "type": "event"
    },
    {
      "anonymous": false,
      "inputs": [
        {
          "indexed": true,
          "internalType": "string",
          "name": "userId",
          "type": "string"
        },
        {
          "indexed": false,
          "internalType": "address",
          "name": "walletAddress",
          "type": "address"
        },
        {
          "indexed": false,
          "internalType": "uint256",
          "name": "withdrawalAmount",
          "type": "uint256"
        },
        {
          "indexed": false,
          "internalType": "enum UserDataStorage.Status",
          "name": "status",
          "type": "uint8"
        },
        {
          "indexed": false,
          "internalType": "string",
          "name": "onMetaTransactionID",
          "type": "string"
        },
        {
          "indexed": false,
          "internalType": "uint256",
          "name": "allTimeStamps",
          "type": "uint256"
        }
      ],
      "name": "payoutSuccessCreated",
      "type": "event"
    },
    {
      "anonymous": false,
      "inputs": [
        {
          "indexed": true,
          "internalType": "string",
          "name": "userId",
          "type": "string"
        },
        {
          "indexed": false,
          "internalType": "address",
          "name": "walletAddress",
          "type": "address"
        },
        {
          "indexed": false,
          "internalType": "uint256",
          "name": "refundedAmount",
          "type": "uint256"
        },
        {
          "indexed": false,
          "internalType": "enum UserDataStorage.Status",
          "name": "status",
          "type": "uint8"
        },
        {
          "indexed": false,
          "internalType": "string",
          "name": "onMetaTransactionID",
          "type": "string"
        },
        {
          "indexed": false,
          "internalType": "uint256",
          "name": "allTimeStamps",
          "type": "uint256"
        }
      ],
      "name": "refundCreated",
      "type": "event"
    },
    {
      "inputs": [
        {
          "internalType": "string",
          "name": "userId",
          "type": "string"
        },
        {
          "internalType": "address",
          "name": "walletAddress",
          "type": "address"
        },
        {
          "internalType": "uint256",
          "name": "withdrawalAmount",
          "type": "uint256"
        },
        {
          "internalType": "enum UserDataStorage.Status",
          "name": "status",
          "type": "uint8"
        },
        {
          "internalType": "string",
          "name": "onMetaTransactionID",
          "type": "string"
        }
      ],
      "name": "OrderReceived",
      "outputs": [],
      "stateMutability": "nonpayable",
      "type": "function"
    },
    {
      "inputs": [
        {
          "internalType": "string",
          "name": "userId",
          "type": "string"
        },
        {
          "internalType": "address",
          "name": "walletAddress",
          "type": "address"
        },
        {
          "internalType": "uint256",
          "name": "withdrawalAmount",
          "type": "uint256"
        },
        {
          "internalType": "enum UserDataStorage.Status",
          "name": "status",
          "type": "uint8"
        },
        {
          "internalType": "string",
          "name": "onMetaTransactionID",
          "type": "string"
        }
      ],
      "name": "adminApprove",
      "outputs": [],
      "stateMutability": "nonpayable",
      "type": "function"
    },
    {
      "inputs": [
        {
          "internalType": "string",
          "name": "userId",
          "type": "string"
        },
        {
          "internalType": "address",
          "name": "walletAddress",
          "type": "address"
        },
        {
          "internalType": "uint256",
          "name": "withdrawalAmount",
          "type": "uint256"
        },
        {
          "internalType": "enum UserDataStorage.Status",
          "name": "status",
          "type": "uint8"
        },
        {
          "internalType": "string",
          "name": "onMetaTransactionID",
          "type": "string"
        }
      ],
      "name": "adminReject",
      "outputs": [],
      "stateMutability": "nonpayable",
      "type": "function"
    },
    {
      "inputs": [
        {
          "internalType": "string",
          "name": "userId",
          "type": "string"
        },
        {
          "internalType": "address",
          "name": "walletAddress",
          "type": "address"
        },
        {
          "internalType": "uint256",
          "name": "withdrawalAmount",
          "type": "uint256"
        },
        {
          "internalType": "enum UserDataStorage.Status",
          "name": "status",
          "type": "uint8"
        },
        {
          "internalType": "string",
          "name": "onMetaTransactionID",
          "type": "string"
        }
      ],
      "name": "adminRetry",
      "outputs": [],
      "stateMutability": "nonpayable",
      "type": "function"
    },
    {
      "inputs": [
        {
          "internalType": "string",
          "name": "userId",
          "type": "string"
        },
        {
          "internalType": "address",
          "name": "walletAddress",
          "type": "address"
        },
        {
          "internalType": "uint256",
          "name": "remainingWithdrawalBalance",
          "type": "uint256"
        },
        {
          "internalType": "string",
          "name": "paymentMode",
          "type": "string"
        },
        {
          "internalType": "uint256",
          "name": "withdrawalAmount",
          "type": "uint256"
        },
        {
          "internalType": "uint256",
          "name": "totalWithdrawalBalance",
          "type": "uint256"
        }
      ],
      "name": "crypto",
      "outputs": [],
      "stateMutability": "nonpayable",
      "type": "function"
    },
    {
      "inputs": [
        {
          "internalType": "string",
          "name": "userId",
          "type": "string"
        },
        {
          "internalType": "address",
          "name": "walletAddress",
          "type": "address"
        },
        {
          "internalType": "uint256",
          "name": "withdrawalAmount",
          "type": "uint256"
        },
        {
          "internalType": "enum UserDataStorage.Status",
          "name": "status",
          "type": "uint8"
        },
        {
          "internalType": "string",
          "name": "onMetaTransactionID",
          "type": "string"
        }
      ],
      "name": "cryptoReceived",
      "outputs": [],
      "stateMutability": "nonpayable",
      "type": "function"
    },
    {
      "inputs": [
        {
          "internalType": "string",
          "name": "userId",
          "type": "string"
        },
        {
          "internalType": "address",
          "name": "walletAddress",
          "type": "address"
        },
        {
          "internalType": "uint256",
          "name": "remainingWithdrawalBalance",
          "type": "uint256"
        },
        {
          "internalType": "string",
          "name": "paymentMode",
          "type": "string"
        },
        {
          "internalType": "uint256",
          "name": "withdrawalAmount",
          "type": "uint256"
        },
        {
          "internalType": "uint256",
          "name": "totalWithdrawalBalance",
          "type": "uint256"
        }
      ],
      "name": "fiat",
      "outputs": [],
      "stateMutability": "nonpayable",
      "type": "function"
    },
    {
      "inputs": [],
      "name": "getCountApproved",
      "outputs": [
        {
          "internalType": "uint256",
          "name": "",
          "type": "uint256"
        }
      ],
      "stateMutability": "view",
      "type": "function"
    },
    {
      "inputs": [],
      "name": "getCountCryptoPayments",
      "outputs": [
        {
          "internalType": "uint256",
          "name": "",
          "type": "uint256"
        }
      ],
      "stateMutability": "view",
      "type": "function"
    },
    {
      "inputs": [],
      "name": "getCountCryptoReceived",
      "outputs": [
        {
          "internalType": "uint256",
          "name": "",
          "type": "uint256"
        }
      ],
      "stateMutability": "view",
      "type": "function"
    },
    {
      "inputs": [],
      "name": "getCountFiatPayments",
      "outputs": [
        {
          "internalType": "uint256",
          "name": "",
          "type": "uint256"
        }
      ],
      "stateMutability": "view",
      "type": "function"
    },
    {
      "inputs": [],
      "name": "getCountOrderReceived",
      "outputs": [
        {
          "internalType": "uint256",
          "name": "",
          "type": "uint256"
        }
      ],
      "stateMutability": "view",
      "type": "function"
    },
    {
      "inputs": [],
      "name": "getCountPayoutSuccess",
      "outputs": [
        {
          "internalType": "uint256",
          "name": "",
          "type": "uint256"
        }
      ],
      "stateMutability": "view",
      "type": "function"
    },
    {
      "inputs": [],
      "name": "getCountPending",
      "outputs": [
        {
          "internalType": "uint256",
          "name": "",
          "type": "uint256"
        }
      ],
      "stateMutability": "view",
      "type": "function"
    },
    {
      "inputs": [],
      "name": "getCountRefunded",
      "outputs": [
        {
          "internalType": "uint256",
          "name": "",
          "type": "uint256"
        }
      ],
      "stateMutability": "view",
      "type": "function"
    },
    {
      "inputs": [],
      "name": "getCountRejected",
      "outputs": [
        {
          "internalType": "uint256",
          "name": "",
          "type": "uint256"
        }
      ],
      "stateMutability": "view",
      "type": "function"
    },
    {
      "inputs": [],
      "name": "getCountRetried",
      "outputs": [
        {
          "internalType": "uint256",
          "name": "",
          "type": "uint256"
        }
      ],
      "stateMutability": "view",
      "type": "function"
    },
    {
      "inputs": [
        {
          "internalType": "uint256",
          "name": "statusInt",
          "type": "uint256"
        }
      ],
      "name": "getStatusFromInt",
      "outputs": [
        {
          "internalType": "enum UserDataStorage.Status",
          "name": "",
          "type": "uint8"
        }
      ],
      "stateMutability": "pure",
      "type": "function"
    },
    {
      "inputs": [],
      "name": "getTotalTransactionCount",
      "outputs": [
        {
          "internalType": "uint256",
          "name": "",
          "type": "uint256"
        }
      ],
      "stateMutability": "view",
      "type": "function"
    },
    {
      "inputs": [
        {
          "internalType": "string",
          "name": "userId",
          "type": "string"
        },
        {
          "internalType": "address",
          "name": "walletAddress",
          "type": "address"
        }
      ],
      "name": "getTransactionsForUser",
      "outputs": [
        {
          "components": [
            {
              "internalType": "address",
              "name": "walletAddress",
              "type": "address"
            },
            {
              "internalType": "string",
              "name": "paymentMode",
              "type": "string"
            },
            {
              "internalType": "uint256",
              "name": "timestamp",
              "type": "uint256"
            },
            {
              "internalType": "uint256",
              "name": "withdrawalAmount",
              "type": "uint256"
            },
            {
              "internalType": "uint256",
              "name": "remainingWithdrawalBalance",
              "type": "uint256"
            },
            {
              "internalType": "uint256",
              "name": "totalWithdrawalBalance",
              "type": "uint256"
            },
            {
              "internalType": "string",
              "name": "onMetaTransactionID",
              "type": "string"
            },
            {
              "internalType": "string",
              "name": "userId",
              "type": "string"
            },
            {
              "internalType": "enum UserDataStorage.Status",
              "name": "status",
              "type": "uint8"
            },
            {
              "internalType": "uint256",
              "name": "refundedAmount",
              "type": "uint256"
            },
            {
              "internalType": "uint256",
              "name": "withdrawCount",
              "type": "uint256"
            },
            {
              "components": [
                {
                  "internalType": "uint256",
                  "name": "withdrawInitiatedTimeStamp",
                  "type": "uint256"
                },
                {
                  "internalType": "uint256",
                  "name": "fiatTimeStamp",
                  "type": "uint256"
                },
                {
                  "internalType": "uint256",
                  "name": "cryptoTimeStamp",
                  "type": "uint256"
                },
                {
                  "internalType": "uint256",
                  "name": "withdrawalPendingTimeStamp",
                  "type": "uint256"
                },
                {
                  "internalType": "uint256",
                  "name": "OrderReceivedTimeStamp",
                  "type": "uint256"
                },
                {
                  "internalType": "uint256",
                  "name": "cryptoReceivedTimeStamp",
                  "type": "uint256"
                },
                {
                  "internalType": "uint256",
                  "name": "payoutSuccessTimeStamp",
                  "type": "uint256"
                },
                {
                  "internalType": "uint256",
                  "name": "refundTimeStamp",
                  "type": "uint256"
                },
                {
                  "internalType": "uint256",
                  "name": "adminApproveTimeStamp",
                  "type": "uint256"
                },
                {
                  "internalType": "uint256",
                  "name": "adminRejectTimeStamp",
                  "type": "uint256"
                },
                {
                  "internalType": "uint256",
                  "name": "adminRetryTimeStamp",
                  "type": "uint256"
                }
              ],
              "internalType": "struct UserDataStorage.timeStampData[]",
              "name": "allTimeStamps",
              "type": "tuple[]"
            }
          ],
          "internalType": "struct UserDataStorage.UserData[]",
          "name": "",
          "type": "tuple[]"
        }
      ],
      "stateMutability": "view",
      "type": "function"
    },
    {
      "inputs": [],
      "name": "owner",
      "outputs": [
        {
          "internalType": "address",
          "name": "",
          "type": "address"
        }
      ],
      "stateMutability": "view",
      "type": "function"
    },
    {
      "inputs": [
        {
          "internalType": "string",
          "name": "userId",
          "type": "string"
        },
        {
          "internalType": "address",
          "name": "walletAddress",
          "type": "address"
        },
        {
          "internalType": "uint256",
          "name": "withdrawalAmount",
          "type": "uint256"
        },
        {
          "internalType": "enum UserDataStorage.Status",
          "name": "status",
          "type": "uint8"
        },
        {
          "internalType": "string",
          "name": "onMetaTransactionID",
          "type": "string"
        }
      ],
      "name": "payoutSuccess",
      "outputs": [],
      "stateMutability": "nonpayable",
      "type": "function"
    },
    {
      "inputs": [
        {
          "internalType": "string",
          "name": "userId",
          "type": "string"
        },
        {
          "internalType": "address",
          "name": "walletAddress",
          "type": "address"
        },
        {
          "internalType": "uint256",
          "name": "refundedAmount",
          "type": "uint256"
        },
        {
          "internalType": "enum UserDataStorage.Status",
          "name": "status",
          "type": "uint8"
        },
        {
          "internalType": "string",
          "name": "onMetaTransactionID",
          "type": "string"
        }
      ],
      "name": "refund",
      "outputs": [],
      "stateMutability": "nonpayable",
      "type": "function"
    },
    {
      "inputs": [],
      "name": "renounceOwnership",
      "outputs": [],
      "stateMutability": "nonpayable",
      "type": "function"
    },
    {
      "inputs": [
        {
          "internalType": "address",
          "name": "newOwner",
          "type": "address"
        }
      ],
      "name": "transferOwnership",
      "outputs": [],
      "stateMutability": "nonpayable",
      "type": "function"
    },
    {
      "inputs": [
        {
          "internalType": "string",
          "name": "",
          "type": "string"
        }
      ],
      "name": "userData",
      "outputs": [
        {
          "internalType": "address",
          "name": "walletAddress",
          "type": "address"
        },
        {
          "internalType": "string",
          "name": "paymentMode",
          "type": "string"
        },
        {
          "internalType": "uint256",
          "name": "timestamp",
          "type": "uint256"
        },
        {
          "internalType": "uint256",
          "name": "withdrawalAmount",
          "type": "uint256"
        },
        {
          "internalType": "uint256",
          "name": "remainingWithdrawalBalance",
          "type": "uint256"
        },
        {
          "internalType": "uint256",
          "name": "totalWithdrawalBalance",
          "type": "uint256"
        },
        {
          "internalType": "string",
          "name": "onMetaTransactionID",
          "type": "string"
        },
        {
          "internalType": "string",
          "name": "userId",
          "type": "string"
        },
        {
          "internalType": "enum UserDataStorage.Status",
          "name": "status",
          "type": "uint8"
        },
        {
          "internalType": "uint256",
          "name": "refundedAmount",
          "type": "uint256"
        },
        {
          "internalType": "uint256",
          "name": "withdrawCount",
          "type": "uint256"
        }
      ],
      "stateMutability": "view",
      "type": "function"
    },
    {
      "inputs": [
        {
          "internalType": "string",
          "name": "userId",
          "type": "string"
        },
        {
          "internalType": "address",
          "name": "walletAddress",
          "type": "address"
        },
        {
          "internalType": "string",
          "name": "paymentMode",
          "type": "string"
        },
        {
          "internalType": "uint256",
          "name": "totalWithdrawalBalance",
          "type": "uint256"
        }
      ],
      "name": "withdraw",
      "outputs": [],
      "stateMutability": "nonpayable",
      "type": "function"
    },
    {
      "inputs": [
        {
          "internalType": "string",
          "name": "userId",
          "type": "string"
        },
        {
          "internalType": "address",
          "name": "walletAddress",
          "type": "address"
        },
        {
          "internalType": "uint256",
          "name": "withdrawalAmount",
          "type": "uint256"
        },
        {
          "internalType": "enum UserDataStorage.Status",
          "name": "status",
          "type": "uint8"
        },
        {
          "internalType": "string",
          "name": "onMetaTransactionID",
          "type": "string"
        }
      ],
      "name": "withdrawalPending",
      "outputs": [],
      "stateMutability": "nonpayable",
      "type": "function"
    }
  ],
  "bytecode": "0x608060405234801561001057600080fd5b506000609781905550614546806100286000396000f3fe608060405234801561001057600080fd5b50600436106101c45760003560e01c80638da5cb5b116100f9578063e2d108de11610097578063f2fde38b11610071578063f2fde38b14610493578063f45abbc4146104af578063fc57a5a7146104cd578063fce21cd914610507576101c4565b8063e2d108de1461043d578063e597600814610459578063eda5f53614610477576101c4565b8063a0fbd4da116100d3578063a0fbd4da146103c9578063a76208b3146103e7578063b4043c7714610403578063b555dfc714610421576101c4565b80638da5cb5b1461036f5780639000a5e71461038d5780639bf51e26146103ab576101c4565b80634a97b1b5116101665780636daf64fe116101405780636daf64fe146102fb578063715018a6146103175780637ebac389146103215780638116fbde1461033f576101c4565b80634a97b1b5146102915780636171fadb146102af5780636bf607c5146102cb576101c4565b80632302d660116101a25780632302d6601461021f57806334672dbd1461023b5780633d6093611461025957806345df9f4714610275576101c4565b806317d5c1ea146101c957806318575d87146101e55780631982924514610203575b600080fd5b6101e360048036038101906101de91906130e1565b610525565b005b6101ed6107ef565b6040516101fa91906131a3565b60405180910390f35b61021d600480360381019061021891906130e1565b6107f9565b005b610239600480360381019061023491906130e1565b610ad5565b005b610243610d9f565b60405161025091906131a3565b60405180910390f35b610273600480360381019061026e91906130e1565b610da9565b005b61028f600480360381019061028a91906130e1565b61105b565b005b610299611325565b6040516102a691906131a3565b60405180910390f35b6102c960048036038101906102c491906131be565b61132f565b005b6102e560048036038101906102e0919061325d565b611587565b6040516102f29190613739565b60405180910390f35b610315600480360381019061031091906130e1565b611a0b565b005b61031f611cd5565b005b610329611ce9565b60405161033691906131a3565b60405180910390f35b6103596004803603810190610354919061375b565b611cf3565b6040516103669190613797565b60405180910390f35b610377611d82565b60405161038491906137c1565b60405180910390f35b610395611dac565b6040516103a291906131a3565b60405180910390f35b6103b3611db6565b6040516103c091906131a3565b60405180910390f35b6103d1611dc0565b6040516103de91906131a3565b60405180910390f35b61040160048036038101906103fc91906137dc565b611dca565b005b61040b6120fa565b60405161041891906131a3565b60405180910390f35b61043b600480360381019061043691906130e1565b612104565b005b610457600480360381019061045291906130e1565b6123ce565b005b610461612680565b60405161046e91906131a3565b60405180910390f35b610491600480360381019061048c91906137dc565b61268a565b005b6104ad60048036038101906104a891906138a1565b6129ba565b005b6104b7612a3d565b6040516104c491906131a3565b60405180910390f35b6104e760048036038101906104e291906138ce565b612a47565b6040516104fe9b9a99989796959493929190613961565b60405180910390f35b61050f612c7c565b60405161051c91906131a3565b60405180910390f35b6000855111610569576040517f08c379a000000000000000000000000000000000000000000000000000000000815260040161056090613a6d565b60405180910390fd5b600073ffffffffffffffffffffffffffffffffffffffff168473ffffffffffffffffffffffffffffffffffffffff16036105d8576040517f08c379a00000000000000000000000000000000000000000000000000000000081526004016105cf90613ad9565b60405180910390fd5b601483101561061c576040517f08c379a000000000000000000000000000000000000000000000000000000000815260040161061390613b6b565b60405180910390fd5b6000815111610660576040517f08c379a000000000000000000000000000000000000000000000000000000000815260040161065790613bfd565b60405180910390fd5b60006098866040516106729190613c59565b90815260200160405180910390209050848160000160006101000a81548173ffffffffffffffffffffffffffffffffffffffff021916908373ffffffffffffffffffffffffffffffffffffffff1602179055508381600301819055506000429050609f60008154809291906106e690613c9f565b9190505550838260080160006101000a81548160ff0219169083600781111561071257610711613382565b5b0217905550609960008773ffffffffffffffffffffffffffffffffffffffff1673ffffffffffffffffffffffffffffffffffffffff168152602001908152602001600020879080600181540180825580915050600190039060005260206000200160009091909190915090816107889190613ef3565b50610791612c86565b8660405161079f9190613c59565b60405180910390207fec5e2095b975efe50923f679f868e5536ecc87ef99ebe467bc0ba52bee402fd787878787866040516107de959493929190613fc5565b60405180910390a250505050505050565b600060a354905090565b600085511161083d576040517f08c379a000000000000000000000000000000000000000000000000000000000815260040161083490613a6d565b60405180910390fd5b600073ffffffffffffffffffffffffffffffffffffffff168473ffffffffffffffffffffffffffffffffffffffff16036108ac576040517f08c379a00000000000000000000000000000000000000000000000000000000081526004016108a390613ad9565b60405180910390fd5b60148310156108f0576040517f08c379a00000000000000000000000000000000000000000000000000000000081526004016108e790613b6b565b60405180910390fd5b6000815111610934576040517f08c379a000000000000000000000000000000000000000000000000000000000815260040161092b90613bfd565b60405180910390fd5b60006098866040516109469190613c59565b90815260200160405180910390209050848160000160006101000a81548173ffffffffffffffffffffffffffffffffffffffff021916908373ffffffffffffffffffffffffffffffffffffffff1602179055508381600301819055506000429050828260060190816109b89190613ef3565b50838260080160006101000a81548160ff021916908360078111156109e0576109df613382565b5b0217905550609e60008154809291906109f890613c9f565b9190505550609960008773ffffffffffffffffffffffffffffffffffffffff1673ffffffffffffffffffffffffffffffffffffffff16815260200190815260200160002087908060018154018082558091505060019003906000526020600020016000909190919091509081610a6e9190613ef3565b50610a77612c86565b86604051610a859190613c59565b60405180910390207fb1eb73f4b9fedb00d5877fc1ff25611f1995198394d79bdd4579c362fcc8964a8787878786604051610ac4959493929190613fc5565b60405180910390a250505050505050565b6000855111610b19576040517f08c379a0000000000000000000000000000000000000000000000000000000008152600401610b1090613a6d565b60405180910390fd5b600073ffffffffffffffffffffffffffffffffffffffff168473ffffffffffffffffffffffffffffffffffffffff1603610b88576040517f08c379a0000000000000000000000000000000000000000000000000000000008152600401610b7f90613ad9565b60405180910390fd5b6014831015610bcc576040517f08c379a0000000000000000000000000000000000000000000000000000000008152600401610bc390613b6b565b60405180910390fd5b6000815111610c10576040517f08c379a0000000000000000000000000000000000000000000000000000000008152600401610c0790613bfd565b60405180910390fd5b6000609886604051610c229190613c59565b90815260200160405180910390209050848160000160006101000a81548173ffffffffffffffffffffffffffffffffffffffff021916908373ffffffffffffffffffffffffffffffffffffffff1602179055508381600301819055506000429050609c6000815480929190610c9690613c9f565b9190505550838260080160006101000a81548160ff02191690836007811115610cc257610cc1613382565b5b0217905550609960008773ffffffffffffffffffffffffffffffffffffffff1673ffffffffffffffffffffffffffffffffffffffff16815260200190815260200160002087908060018154018082558091505060019003906000526020600020016000909190919091509081610d389190613ef3565b50610d41612c86565b86604051610d4f9190613c59565b60405180910390207f4cf9c9f8411ef185e6d19a614fbba4abe87ab8d5b0a38103c994615c0daeb9d08787878786604051610d8e959493929190613fc5565b60405180910390a250505050505050565b6000609c54905090565b6000855111610ded576040517f08c379a0000000000000000000000000000000000000000000000000000000008152600401610de490613a6d565b60405180910390fd5b600073ffffffffffffffffffffffffffffffffffffffff168473ffffffffffffffffffffffffffffffffffffffff1603610e5c576040517f08c379a0000000000000000000000000000000000000000000000000000000008152600401610e5390613ad9565b60405180910390fd5b6014831015610ea0576040517f08c379a0000000000000000000000000000000000000000000000000000000008152600401610e9790613b6b565b60405180910390fd5b6000815111610ee4576040517f08c379a0000000000000000000000000000000000000000000000000000000008152600401610edb90613bfd565b60405180910390fd5b6000609886604051610ef69190613c59565b90815260200160405180910390209050848160000160006101000a81548173ffffffffffffffffffffffffffffffffffffffff021916908373ffffffffffffffffffffffffffffffffffffffff1602179055508381600301819055506000429050838260080160006101000a81548160ff02191690836007811115610f7e57610f7d613382565b5b0217905550609960008773ffffffffffffffffffffffffffffffffffffffff1673ffffffffffffffffffffffffffffffffffffffff16815260200190815260200160002087908060018154018082558091505060019003906000526020600020016000909190919091509081610ff49190613ef3565b50610ffd612c86565b8660405161100b9190613c59565b60405180910390207fd9329e5f18bff6513dd3d28184dcacc3292fea66e988b043166d76f7df7bb15b878787878660405161104a959493929190613fc5565b60405180910390a250505050505050565b600085511161109f576040517f08c379a000000000000000000000000000000000000000000000000000000000815260040161109690613a6d565b60405180910390fd5b600073ffffffffffffffffffffffffffffffffffffffff168473ffffffffffffffffffffffffffffffffffffffff160361110e576040517f08c379a000000000000000000000000000000000000000000000000000000000815260040161110590613ad9565b60405180910390fd5b6014831015611152576040517f08c379a000000000000000000000000000000000000000000000000000000000815260040161114990613b6b565b60405180910390fd5b6000815111611196576040517f08c379a000000000000000000000000000000000000000000000000000000000815260040161118d90613bfd565b60405180910390fd5b60006098866040516111a89190613c59565b90815260200160405180910390209050848160000160006101000a81548173ffffffffffffffffffffffffffffffffffffffff021916908373ffffffffffffffffffffffffffffffffffffffff160217905550838160030181905550600042905060a1600081548092919061121c90613c9f565b9190505550838260080160006101000a81548160ff0219169083600781111561124857611247613382565b5b0217905550609960008773ffffffffffffffffffffffffffffffffffffffff1673ffffffffffffffffffffffffffffffffffffffff168152602001908152602001600020879080600181540180825580915050600190039060005260206000200160009091909190915090816112be9190613ef3565b506112c7612c86565b866040516112d59190613c59565b60405180910390207f0953d4fe5873d2f59195e8a3c83e76112b6ebd8402d622f9cd1dde95c9c481298787878786604051611314959493929190613fc5565b60405180910390a250505050505050565b6000609754905090565b611337612ca0565b600084511161137b576040517f08c379a000000000000000000000000000000000000000000000000000000000815260040161137290613a6d565b60405180910390fd5b600073ffffffffffffffffffffffffffffffffffffffff168373ffffffffffffffffffffffffffffffffffffffff16036113ea576040517f08c379a00000000000000000000000000000000000000000000000000000000081526004016113e190613ad9565b60405180910390fd5b600082511161142e576040517f08c379a00000000000000000000000000000000000000000000000000000000081526004016114259061406b565b60405180910390fd5b60006098856040516114409190613c59565b90815260200160405180910390209050838160000160006101000a81548173ffffffffffffffffffffffffffffffffffffffff021916908373ffffffffffffffffffffffffffffffffffffffff160217905550828160010190816114a49190613ef3565b506000429050609960008673ffffffffffffffffffffffffffffffffffffffff1673ffffffffffffffffffffffffffffffffffffffff1681526020019081526020016000208690806001815401808255809150506001900390600052602060002001600090919091909150908161151b9190613ef3565b50611524612c86565b856040516115329190613c59565b60405180910390207fdbf16f543ff6a6c18b3612f5258cab93d55b5d1e28c0db02e67252bf8469c8d68686848760405161156f949392919061408b565b60405180910390a25050611581612cef565b50505050565b60606000609960008473ffffffffffffffffffffffffffffffffffffffff1673ffffffffffffffffffffffffffffffffffffffff16815260200190815260200160002090506000818054905067ffffffffffffffff8111156115ec576115eb612efd565b5b60405190808252806020026020018201604052801561162557816020015b611612612e45565b81526020019060019003908161160a5790505b50905060005b82805490508110156119ff57609883828154811061164c5761164b6140d7565b5b906000526020600020016040516116639190614189565b9081526020016040518091039020604051806101800160405290816000820160009054906101000a900473ffffffffffffffffffffffffffffffffffffffff1673ffffffffffffffffffffffffffffffffffffffff1673ffffffffffffffffffffffffffffffffffffffff1681526020016001820180546116e390613d16565b80601f016020809104026020016040519081016040528092919081815260200182805461170f90613d16565b801561175c5780601f106117315761010080835404028352916020019161175c565b820191906000526020600020905b81548152906001019060200180831161173f57829003601f168201915b505050505081526020016002820154815260200160038201548152602001600482015481526020016005820154815260200160068201805461179d90613d16565b80601f01602080910402602001604051908101604052809291908181526020018280546117c990613d16565b80156118165780601f106117eb57610100808354040283529160200191611816565b820191906000526020600020905b8154815290600101906020018083116117f957829003601f168201915b5050505050815260200160078201805461182f90613d16565b80601f016020809104026020016040519081016040528092919081815260200182805461185b90613d16565b80156118a85780601f1061187d576101008083540402835291602001916118a8565b820191906000526020600020905b81548152906001019060200180831161188b57829003601f168201915b505050505081526020016008820160009054906101000a900460ff1660078111156118d6576118d5613382565b5b60078111156118e8576118e7613382565b5b815260200160098201548152602001600a8201548152602001600b8201805480602002602001604051908101604052809291908181526020016000905b828210156119c657838290600052602060002090600b02016040518061016001604052908160008201548152602001600182015481526020016002820154815260200160038201548152602001600482015481526020016005820154815260200160068201548152602001600782015481526020016008820154815260200160098201548152602001600a8201548152505081526020019060010190611925565b50505050815250508282815181106119e1576119e06140d7565b5b602002602001018190525080806119f790613c9f565b91505061162b565b50809250505092915050565b6000855111611a4f576040517f08c379a0000000000000000000000000000000000000000000000000000000008152600401611a4690613a6d565b60405180910390fd5b600073ffffffffffffffffffffffffffffffffffffffff168473ffffffffffffffffffffffffffffffffffffffff1603611abe576040517f08c379a0000000000000000000000000000000000000000000000000000000008152600401611ab590613ad9565b60405180910390fd5b6014831015611b02576040517f08c379a0000000000000000000000000000000000000000000000000000000008152600401611af990613b6b565b60405180910390fd5b6000815111611b46576040517f08c379a0000000000000000000000000000000000000000000000000000000008152600401611b3d90613bfd565b60405180910390fd5b6000609886604051611b589190613c59565b90815260200160405180910390209050848160000160006101000a81548173ffffffffffffffffffffffffffffffffffffffff021916908373ffffffffffffffffffffffffffffffffffffffff1602179055508381600301819055506000429050609d6000815480929190611bcc90613c9f565b9190505550838260080160006101000a81548160ff02191690836007811115611bf857611bf7613382565b5b0217905550609960008773ffffffffffffffffffffffffffffffffffffffff1673ffffffffffffffffffffffffffffffffffffffff16815260200190815260200160002087908060018154018082558091505060019003906000526020600020016000909190919091509081611c6e9190613ef3565b50611c77612c86565b86604051611c859190613c59565b60405180910390207f105749f300fa2f53f84252e801b114fe784336e5673ca97622df4c333ded327d8787878786604051611cc4959493929190613fc5565b60405180910390a250505050505050565b611cdd612cf9565b611ce76000612d77565b565b600060a154905090565b6000806007811115611d0857611d07613382565b5b8210158015611d295750600780811115611d2557611d24613382565b5b8211155b611d68576040517f08c379a0000000000000000000000000000000000000000000000000000000008152600401611d5f906141ec565b60405180910390fd5b816007811115611d7b57611d7a613382565b5b9050919050565b6000603360009054906101000a900473ffffffffffffffffffffffffffffffffffffffff16905090565b600060a054905090565b6000609f54905090565b6000609a54905090565b611dd2612ca0565b6000865111611e16576040517f08c379a0000000000000000000000000000000000000000000000000000000008152600401611e0d90613a6d565b60405180910390fd5b600073ffffffffffffffffffffffffffffffffffffffff168573ffffffffffffffffffffffffffffffffffffffff1603611e85576040517f08c379a0000000000000000000000000000000000000000000000000000000008152600401611e7c90613ad9565b60405180910390fd5b6014821015611ec9576040517f08c379a0000000000000000000000000000000000000000000000000000000008152600401611ec09061427e565b60405180910390fd5b6000811015611f0d576040517f08c379a0000000000000000000000000000000000000000000000000000000008152600401611f04906142ea565b60405180910390fd5b6000835111611f51576040517f08c379a0000000000000000000000000000000000000000000000000000000008152600401611f489061406b565b60405180910390fd5b8181611f5d919061430a565b8414611f6857600080fd5b6000609887604051611f7a9190613c59565b90815260200160405180910390209050818160050181905550828160030181905550848160040181905550858160000160006101000a81548173ffffffffffffffffffffffffffffffffffffffff021916908373ffffffffffffffffffffffffffffffffffffffff16021790555083816001019081611ff99190613ef3565b506000429050609b600081548092919061201290613c9f565b9190505550609960008873ffffffffffffffffffffffffffffffffffffffff1673ffffffffffffffffffffffffffffffffffffffff168152602001908152602001600020889080600181540180825580915050600190039060005260206000200160009091909190915090816120889190613ef3565b50612091612c86565b8760405161209f9190613c59565b60405180910390207fd69f584dce5f7130b5358d780201f4a139ead0529a7525437f896298bd6cb94b8887848a89896040516120e09695949392919061433e565b60405180910390a250506120f2612cef565b505050505050565b6000609b54905090565b6000855111612148576040517f08c379a000000000000000000000000000000000000000000000000000000000815260040161213f90613a6d565b60405180910390fd5b600073ffffffffffffffffffffffffffffffffffffffff168473ffffffffffffffffffffffffffffffffffffffff16036121b7576040517f08c379a00000000000000000000000000000000000000000000000000000000081526004016121ae90613ad9565b60405180910390fd5b60148310156121fb576040517f08c379a00000000000000000000000000000000000000000000000000000000081526004016121f290613b6b565b60405180910390fd5b600081511161223f576040517f08c379a000000000000000000000000000000000000000000000000000000000815260040161223690613bfd565b60405180910390fd5b60006098866040516122519190613c59565b90815260200160405180910390209050848160000160006101000a81548173ffffffffffffffffffffffffffffffffffffffff021916908373ffffffffffffffffffffffffffffffffffffffff160217905550838160090181905550600042905060a060008154809291906122c590613c9f565b9190505550838260080160006101000a81548160ff021916908360078111156122f1576122f0613382565b5b0217905550609960008773ffffffffffffffffffffffffffffffffffffffff1673ffffffffffffffffffffffffffffffffffffffff168152602001908152602001600020879080600181540180825580915050600190039060005260206000200160009091909190915090816123679190613ef3565b50612370612c86565b8660405161237e9190613c59565b60405180910390207f6f30513f52389efaa1a8956a31a72dc74e47b771f04345e6ffc5a523cfd4a5f587878787866040516123bd959493929190613fc5565b60405180910390a250505050505050565b6000855111612412576040517f08c379a000000000000000000000000000000000000000000000000000000000815260040161240990613a6d565b60405180910390fd5b600073ffffffffffffffffffffffffffffffffffffffff168473ffffffffffffffffffffffffffffffffffffffff1603612481576040517f08c379a000000000000000000000000000000000000000000000000000000000815260040161247890613ad9565b60405180910390fd5b60148310156124c5576040517f08c379a00000000000000000000000000000000000000000000000000000000081526004016124bc90613b6b565b60405180910390fd5b6000815111612509576040517f08c379a000000000000000000000000000000000000000000000000000000000815260040161250090613bfd565b60405180910390fd5b600060988660405161251b9190613c59565b90815260200160405180910390209050848160000160006101000a81548173ffffffffffffffffffffffffffffffffffffffff021916908373ffffffffffffffffffffffffffffffffffffffff1602179055508381600301819055506000429050609960008773ffffffffffffffffffffffffffffffffffffffff1673ffffffffffffffffffffffffffffffffffffffff168152602001908152602001600020879080600181540180825580915050600190039060005260206000200160009091909190915090816125ed9190613ef3565b506125f6612c86565b838260080160006101000a81548160ff0219169083600781111561261d5761261c613382565b5b0217905550866040516126309190613c59565b60405180910390207ff9aef67f901673bcdbf06b69f7a587eadb245e330116ccda67b0ed5699f3cfeb878787878660405161266f959493929190613fc5565b60405180910390a250505050505050565b6000609e54905090565b612692612ca0565b60008651116126d6576040517f08c379a00000000000000000000000000000000000000000000000000000000081526004016126cd90613a6d565b60405180910390fd5b600073ffffffffffffffffffffffffffffffffffffffff168573ffffffffffffffffffffffffffffffffffffffff1603612745576040517f08c379a000000000000000000000000000000000000000000000000000000000815260040161273c90613ad9565b60405180910390fd5b6014821015612789576040517f08c379a00000000000000000000000000000000000000000000000000000000081526004016127809061427e565b60405180910390fd5b60008110156127cd576040517f08c379a00000000000000000000000000000000000000000000000000000000081526004016127c4906142ea565b60405180910390fd5b6000835111612811576040517f08c379a00000000000000000000000000000000000000000000000000000000081526004016128089061406b565b60405180910390fd5b818161281d919061430a565b841461282857600080fd5b600060988760405161283a9190613c59565b90815260200160405180910390209050818160050181905550828160030181905550848160040181905550858160000160006101000a81548173ffffffffffffffffffffffffffffffffffffffff021916908373ffffffffffffffffffffffffffffffffffffffff160217905550838160010190816128b99190613ef3565b506000429050609a60008154809291906128d290613c9f565b9190505550609960008873ffffffffffffffffffffffffffffffffffffffff1673ffffffffffffffffffffffffffffffffffffffff168152602001908152602001600020889080600181540180825580915050600190039060005260206000200160009091909190915090816129489190613ef3565b50612951612c86565b8760405161295f9190613c59565b60405180910390207f21bbe1994ea510b02ac897f6e74b8970811e50b35ac96475c76769a2a0996ec38887898888876040516129a09695949392919061433e565b60405180910390a250506129b2612cef565b505050505050565b6129c2612cf9565b600073ffffffffffffffffffffffffffffffffffffffff168173ffffffffffffffffffffffffffffffffffffffff1603612a31576040517f08c379a0000000000000000000000000000000000000000000000000000000008152600401612a2890614418565b60405180910390fd5b612a3a81612d77565b50565b6000609d54905090565b6098818051602081018201805184825260208301602085012081835280955050505050506000915090508060000160009054906101000a900473ffffffffffffffffffffffffffffffffffffffff1690806001018054612aa690613d16565b80601f0160208091040260200160405190810160405280929190818152602001828054612ad290613d16565b8015612b1f5780601f10612af457610100808354040283529160200191612b1f565b820191906000526020600020905b815481529060010190602001808311612b0257829003601f168201915b505050505090806002015490806003015490806004015490806005015490806006018054612b4c90613d16565b80601f0160208091040260200160405190810160405280929190818152602001828054612b7890613d16565b8015612bc55780601f10612b9a57610100808354040283529160200191612bc5565b820191906000526020600020905b815481529060010190602001808311612ba857829003601f168201915b505050505090806007018054612bda90613d16565b80601f0160208091040260200160405190810160405280929190818152602001828054612c0690613d16565b8015612c535780601f10612c2857610100808354040283529160200191612c53565b820191906000526020600020905b815481529060010190602001808311612c3657829003601f168201915b5050505050908060080160009054906101000a900460ff169080600901549080600a015490508b565b600060a254905090565b60976000815480929190612c9990613c9f565b9190505550565b600260655403612ce5576040517f08c379a0000000000000000000000000000000000000000000000000000000008152600401612cdc90614484565b60405180910390fd5b6002606581905550565b6001606581905550565b612d01612e3d565b73ffffffffffffffffffffffffffffffffffffffff16612d1f611d82565b73ffffffffffffffffffffffffffffffffffffffff1614612d75576040517f08c379a0000000000000000000000000000000000000000000000000000000008152600401612d6c906144f0565b60405180910390fd5b565b6000603360009054906101000a900473ffffffffffffffffffffffffffffffffffffffff16905081603360006101000a81548173ffffffffffffffffffffffffffffffffffffffff021916908373ffffffffffffffffffffffffffffffffffffffff1602179055508173ffffffffffffffffffffffffffffffffffffffff168173ffffffffffffffffffffffffffffffffffffffff167f8be0079c531659141344cd1fd0a4f28419497f9722a3daafe3b4186f6b6457e060405160405180910390a35050565b600033905090565b604051806101800160405280600073ffffffffffffffffffffffffffffffffffffffff1681526020016060815260200160008152602001600081526020016000815260200160008152602001606081526020016060815260200160006007811115612eb357612eb2613382565b5b81526020016000815260200160008152602001606081525090565b6000604051905090565b600080fd5b600080fd5b600080fd5b600080fd5b6000601f19601f8301169050919050565b7f4e487b7100000000000000000000000000000000000000000000000000000000600052604160045260246000fd5b612f3582612eec565b810181811067ffffffffffffffff82111715612f5457612f53612efd565b5b80604052505050565b6000612f67612ece565b9050612f738282612f2c565b919050565b600067ffffffffffffffff821115612f9357612f92612efd565b5b612f9c82612eec565b9050602081019050919050565b82818337600083830152505050565b6000612fcb612fc684612f78565b612f5d565b905082815260208101848484011115612fe757612fe6612ee7565b5b612ff2848285612fa9565b509392505050565b600082601f83011261300f5761300e612ee2565b5b813561301f848260208601612fb8565b91505092915050565b600073ffffffffffffffffffffffffffffffffffffffff82169050919050565b600061305382613028565b9050919050565b61306381613048565b811461306e57600080fd5b50565b6000813590506130808161305a565b92915050565b6000819050919050565b61309981613086565b81146130a457600080fd5b50565b6000813590506130b681613090565b92915050565b600881106130c957600080fd5b50565b6000813590506130db816130bc565b92915050565b600080600080600060a086880312156130fd576130fc612ed8565b5b600086013567ffffffffffffffff81111561311b5761311a612edd565b5b61312788828901612ffa565b955050602061313888828901613071565b9450506040613149888289016130a7565b935050606061315a888289016130cc565b925050608086013567ffffffffffffffff81111561317b5761317a612edd565b5b61318788828901612ffa565b9150509295509295909350565b61319d81613086565b82525050565b60006020820190506131b86000830184613194565b92915050565b600080600080608085870312156131d8576131d7612ed8565b5b600085013567ffffffffffffffff8111156131f6576131f5612edd565b5b61320287828801612ffa565b945050602061321387828801613071565b935050604085013567ffffffffffffffff81111561323457613233612edd565b5b61324087828801612ffa565b9250506060613251878288016130a7565b91505092959194509250565b6000806040838503121561327457613273612ed8565b5b600083013567ffffffffffffffff81111561329257613291612edd565b5b61329e85828601612ffa565b92505060206132af85828601613071565b9150509250929050565b600081519050919050565b600082825260208201905092915050565b6000819050602082019050919050565b6132ee81613048565b82525050565b600081519050919050565b600082825260208201905092915050565b60005b8381101561332e578082015181840152602081019050613313565b60008484015250505050565b6000613345826132f4565b61334f81856132ff565b935061335f818560208601613310565b61336881612eec565b840191505092915050565b61337c81613086565b82525050565b7f4e487b7100000000000000000000000000000000000000000000000000000000600052602160045260246000fd5b600881106133c2576133c1613382565b5b50565b60008190506133d3826133b1565b919050565b60006133e3826133c5565b9050919050565b6133f3816133d8565b82525050565b600081519050919050565b600082825260208201905092915050565b6000819050602082019050919050565b6101608201600082015161343c6000850182613373565b50602082015161344f6020850182613373565b5060408201516134626040850182613373565b5060608201516134756060850182613373565b5060808201516134886080850182613373565b5060a082015161349b60a0850182613373565b5060c08201516134ae60c0850182613373565b5060e08201516134c160e0850182613373565b506101008201516134d6610100850182613373565b506101208201516134eb610120850182613373565b50610140820151613500610140850182613373565b50505050565b60006135128383613425565b6101608301905092915050565b6000602082019050919050565b6000613537826133f9565b6135418185613404565b935061354c83613415565b8060005b8381101561357d5781516135648882613506565b975061356f8361351f565b925050600181019050613550565b5085935050505092915050565b6000610180830160008301516135a360008601826132e5565b50602083015184820360208601526135bb828261333a565b91505060408301516135d06040860182613373565b5060608301516135e36060860182613373565b5060808301516135f66080860182613373565b5060a083015161360960a0860182613373565b5060c083015184820360c0860152613621828261333a565b91505060e083015184820360e086015261363b828261333a565b9150506101008301516136526101008601826133ea565b50610120830151613667610120860182613373565b5061014083015161367c610140860182613373565b50610160830151848203610160860152613696828261352c565b9150508091505092915050565b60006136af838361358a565b905092915050565b6000602082019050919050565b60006136cf826132b9565b6136d981856132c4565b9350836020820285016136eb856132d5565b8060005b85811015613727578484038952815161370885826136a3565b9450613713836136b7565b925060208a019950506001810190506136ef565b50829750879550505050505092915050565b6000602082019050818103600083015261375381846136c4565b905092915050565b60006020828403121561377157613770612ed8565b5b600061377f848285016130a7565b91505092915050565b613791816133d8565b82525050565b60006020820190506137ac6000830184613788565b92915050565b6137bb81613048565b82525050565b60006020820190506137d660008301846137b2565b92915050565b60008060008060008060c087890312156137f9576137f8612ed8565b5b600087013567ffffffffffffffff81111561381757613816612edd565b5b61382389828a01612ffa565b965050602061383489828a01613071565b955050604061384589828a016130a7565b945050606087013567ffffffffffffffff81111561386657613865612edd565b5b61387289828a01612ffa565b935050608061388389828a016130a7565b92505060a061389489828a016130a7565b9150509295509295509295565b6000602082840312156138b7576138b6612ed8565b5b60006138c584828501613071565b91505092915050565b6000602082840312156138e4576138e3612ed8565b5b600082013567ffffffffffffffff81111561390257613901612edd565b5b61390e84828501612ffa565b91505092915050565b600082825260208201905092915050565b6000613933826132f4565b61393d8185613917565b935061394d818560208601613310565b61395681612eec565b840191505092915050565b600061016082019050613977600083018e6137b2565b8181036020830152613989818d613928565b9050613998604083018c613194565b6139a5606083018b613194565b6139b2608083018a613194565b6139bf60a0830189613194565b81810360c08301526139d18188613928565b905081810360e08301526139e58187613928565b90506139f5610100830186613788565b613a03610120830185613194565b613a11610140830184613194565b9c9b505050505050505050505050565b7f496e76616c696420757365722049440000000000000000000000000000000000600082015250565b6000613a57600f83613917565b9150613a6282613a21565b602082019050919050565b60006020820190508181036000830152613a8681613a4a565b9050919050565b7f496e76616c69642077616c6c6574206164647265737300000000000000000000600082015250565b6000613ac3601683613917565b9150613ace82613a8d565b602082019050919050565b60006020820190508181036000830152613af281613ab6565b9050919050565b7f5769746864726177616c20616d6f756e74206d7573742062652067726561746560008201527f72207468616e207a65726f000000000000000000000000000000000000000000602082015250565b6000613b55602b83613917565b9150613b6082613af9565b604082019050919050565b60006020820190508181036000830152613b8481613b48565b9050919050565b7f6f6e4d6574615472616e73616374696f6e49442063616e6e6f7420626520656d60008201527f7074790000000000000000000000000000000000000000000000000000000000602082015250565b6000613be7602383613917565b9150613bf282613b8b565b604082019050919050565b60006020820190508181036000830152613c1681613bda565b9050919050565b600081905092915050565b6000613c33826132f4565b613c3d8185613c1d565b9350613c4d818560208601613310565b80840191505092915050565b6000613c658284613c28565b915081905092915050565b7f4e487b7100000000000000000000000000000000000000000000000000000000600052601160045260246000fd5b6000613caa82613086565b91507fffffffffffffffffffffffffffffffffffffffffffffffffffffffffffffffff8203613cdc57613cdb613c70565b5b600182019050919050565b7f4e487b7100000000000000000000000000000000000000000000000000000000600052602260045260246000fd5b60006002820490506001821680613d2e57607f821691505b602082108103613d4157613d40613ce7565b5b50919050565b60008190508160005260206000209050919050565b60006020601f8301049050919050565b600082821b905092915050565b600060088302613da97fffffffffffffffffffffffffffffffffffffffffffffffffffffffffffffffff82613d6c565b613db38683613d6c565b95508019841693508086168417925050509392505050565b6000819050919050565b6000613df0613deb613de684613086565b613dcb565b613086565b9050919050565b6000819050919050565b613e0a83613dd5565b613e1e613e1682613df7565b848454613d79565b825550505050565b600090565b613e33613e26565b613e3e818484613e01565b505050565b5b81811015613e6257613e57600082613e2b565b600181019050613e44565b5050565b601f821115613ea757613e7881613d47565b613e8184613d5c565b81016020851015613e90578190505b613ea4613e9c85613d5c565b830182613e43565b50505b505050565b600082821c905092915050565b6000613eca60001984600802613eac565b1980831691505092915050565b6000613ee38383613eb9565b9150826002028217905092915050565b613efc826132f4565b67ffffffffffffffff811115613f1557613f14612efd565b5b613f1f8254613d16565b613f2a828285613e66565b600060209050601f831160018114613f5d5760008415613f4b578287015190505b613f558582613ed7565b865550613fbd565b601f198416613f6b86613d47565b60005b82811015613f9357848901518255600182019150602085019450602081019050613f6e565b86831015613fb05784890151613fac601f891682613eb9565b8355505b6001600288020188555050505b505050505050565b600060a082019050613fda60008301886137b2565b613fe76020830187613194565b613ff46040830186613788565b81810360608301526140068185613928565b90506140156080830184613194565b9695505050505050565b7f496e76616c6964207061796d656e74206d6f6465000000000000000000000000600082015250565b6000614055601483613917565b91506140608261401f565b602082019050919050565b6000602082019050818103600083015261408481614048565b9050919050565b60006080820190506140a060008301876137b2565b81810360208301526140b28186613928565b90506140c16040830185613194565b6140ce6060830184613194565b95945050505050565b7f4e487b7100000000000000000000000000000000000000000000000000000000600052603260045260246000fd5b6000815461411381613d16565b61411d8186613c1d565b94506001821660008114614138576001811461414d57614180565b60ff1983168652811515820286019350614180565b61415685613d47565b60005b8381101561417857815481890152600182019150602081019050614159565b838801955050505b50505092915050565b60006141958284614106565b915081905092915050565b7f496e76616c69642073746174757320696e746567657200000000000000000000600082015250565b60006141d6601683613917565b91506141e1826141a0565b602082019050919050565b60006020820190508181036000830152614205816141c9565b9050919050565b7f4d696e696d756d205769746864726177616c20616d6f756e742073686f756c6460008201527f2062652067726561746572207468616e20323043465400000000000000000000602082015250565b6000614268603683613917565b91506142738261420c565b604082019050919050565b600060208201905081810360008301526142978161425b565b9050919050565b7f546f74616c2062616c616e636500000000000000000000000000000000000000600082015250565b60006142d4600d83613917565b91506142df8261429e565b602082019050919050565b60006020820190508181036000830152614303816142c7565b9050919050565b600061431582613086565b915061432083613086565b925082820390508181111561433857614337613c70565b5b92915050565b600060c08201905061435360008301896137b2565b81810360208301526143658188613928565b90506143746040830187613194565b6143816060830186613194565b61438e6080830185613194565b61439b60a0830184613194565b979650505050505050565b7f4f776e61626c653a206e6577206f776e657220697320746865207a65726f206160008201527f6464726573730000000000000000000000000000000000000000000000000000602082015250565b6000614402602683613917565b915061440d826143a6565b604082019050919050565b60006020820190508181036000830152614431816143f5565b9050919050565b7f5265656e7472616e637947756172643a207265656e7472616e742063616c6c00600082015250565b600061446e601f83613917565b915061447982614438565b602082019050919050565b6000602082019050818103600083015261449d81614461565b9050919050565b7f4f776e61626c653a2063616c6c6572206973206e6f7420746865206f776e6572600082015250565b60006144da602083613917565b91506144e5826144a4565b602082019050919050565b60006020820190508181036000830152614509816144cd565b905091905056fea2646970667358221220a682f03d7873b33e02d17ea2c48c8b86a987ef5dcf9d4cdce05764bf80604fb364736f6c63430008130033",
  "linkReferences": {},
  "deployedLinkReferences": {}
}